:10000000C1C0DBC0DAC0D9C0D8C0D7C0D6C0B5CB5C
:10001000D4C0D3C0D2C0D1C0D0C0CFC0CEC0CDC05C
:10002000CCC0CBC0E9CDC9C0C8C0C7C0C6C0C5C060
:10003000C4C0C3C0D0CAA7CA69CA44CA06CAE5C9EF
:10004000A7C98AC91FC906C99BC886C81BC80AC8D0
:100050009FC75DC7F2C6A8C651C60BC6B8C569C55D
:1000600046C4F6CA0BCC31CD2CCD28CD1ECD19CD32
:10007000B3CC95CC6FCC49CC2CCCCBCB27CC1BCCE8
:1000800005CCFECB000000000000000000000000D6
:10009000000000000000000000000101010101015A
:1000A0000101010101020202020202020203030332
:1000B00003030404040404050505050606060607F3
:1000C0000707070808080909090A0A0A0B0B0C0C9C
:1000D0000C0D0D0E0E0F0F0F101011111212131325
:1000E000141415161617171819191A1A1B1C1C1D8B
:1000F0001E1E1F20212122232424252627282829CB
:100100002A2B2C2D2E2E2F303132333435363738E2
:10011000393A3B3C3D3E3F404143444546474849D0
:100120004B4C4D4E50515253555657595A5B5D5E8C
:100130005F616263656668696B6C6E6F717274751E
:1001400077797A7C7D7F8182848687898B8D8E907A
:1001500092949697999B9D9FA1A3A5A6A8AAACAEA1
:10016000B0B2B4B6B8BABDBFC1C3C5C7C9CCCED092
:10017000D2D4D7D9DBDDE0E2E4E7E9EBEEF0F3F54A
:10018000F8FAFDFF11241FBECFEFD4E0DEBFCDBFD4
:1001900013E0A8EDB3E0E6ECFCE102C005900D929F
:1001A000AC3EB107D9F724E0ACEEB3E001C01D923C
:1001B000A830B207E1F71BDB84CD22CF87B1837F64
:1001C00087B988B18C6088B9089586B183FB882788
:1001D00080F991E08927089586B182FB882780F90C
:1001E00091E089270895EF92FF920F93803308F0F2
:1001F00078C0E42FF0E0E80FF11DF19744F090EDA6
:10020000980F342F390F431708F06EC040E06C3060
:1002100008F063C0E22FF0E0E60FF11D3D973CF0DF
:1002200094EF920F960F291708F457C0291B260F39
:10023000621708F052C0480F841708F04BC0982F7F
:10024000392FF70176E0679FE00DB0E0A32FA7708C
:10025000A852BC4F7C91369536953695E30F033006
:1002600059F10230E1F0013069F070950080072209
:100270000082E85B008007220082E85B00800722A2
:10028000008225C00080072A0082E85B709500800C
:1002900007220082E85B00800722008218C00080ED
:1002A000072A0082E85B0080072A0082E85B7095DD
:1002B0000080072200820BC00080072A0082E85BD2
:1002C0000080072A0082E85B0080072A00829F5F87
:1002D0009413B6CF6F5F6213AFCF0F91FF90EF9083
:1002E00008958FE240E093CF492F419590CFDF9260
:1002F000EF92FF920F931F93CF93DF93E82EF62E8A
:10030000D62ED20E6D1508F06DC0D82FD40F90E008
:1003100080E0ED1608F062C0CE2D0CC09150C033C5
:1003200018F42BE02F1558F486958695CF5FCD17DE
:1003300008F054C09111F2CF39DC93E0F0CF4C2F8C
:10034000F801382F337076E0F79EE00DB0E0A42F6F
:10035000A770A852BC4F7C91469546954695E40FF0
:10036000333059F13230E1F0313069F0709500806E
:1003700007220082E85B008007220082E85B0080A1
:100380000722008225C00080072A0082E85B709562
:10039000008007220082E85B00800722008218C0EC
:1003A0000080072A0082E85B0080072A0082E85B61
:1003B00070950080072200820BC00080072A00820F
:1003C000E85B0080072A0082E85B0080072A008241
:1003D00086958695CF5FCD1708F4ACCFF394FD14C6
:1003E00008F497CFDF91CF911F910F91FF90EF907D
:1003F000DF900895AF92BF92CF92DF92EF920F936A
:10040000CF93DF93803308F0CBC0E02FF0E0E80F0C
:10041000F11DF19744F090ED980F302F390F03172D
:1004200008F0C6C000E06C3008F0B7C0EE2DF0E078
:10043000E60FF11D3D973CF094EF9E0D960FE916E7
:1004400008F0B1C0E12C403308F0A4C0E02FF0E088
:10045000E40FF11DF19744F090ED940F302F390F18
:10046000031708F0A2C000E02C3008F08AC0EE2D7F
:10047000F0E0E20FF11D3D974CF094EF920F3E2D0E
:10048000390FE31608F47DC0E92EE194E60E6E15EF
:1004900008F077C0080FD22FD61B481BC0E02D2FC5
:1004A000260F801708F06AC0582F352FF6019C2FB1
:1004B00076E0679FE00DB0E0A32FA770A852BC4F75
:1004C0007C91369536953695E30F0080072209F02A
:1004D0009395E85B0080072209F09395E85B008024
:1004E000072209F09395342F350FF50176E0279F09
:1004F000E00DB0E0A32FA770A852BC4F7C913695B9
:1005000036953695E30F933059F19230E1F0913002
:1005100069F07095008007220082E85B0080072266
:100520000082E85B00800722008225C00080072A45
:100530000082E85B7095008007220082E85B008003
:100540000722008218C00080072A0082E85B008032
:10055000072A0082E85B70950080072200820BC0AA
:100560000080072A0082E85B0080072A0082E85B9F
:100570000080072A00825F5F501397CF6F5F6E1174
:100580008ECFDF91CF910F91EF90DF90CF90BF9002
:10059000AF9008954FE200E067CF6BE0E12C53CFBE
:1005A0008FE200E040CFE91A4ECF092F01955CCFD2
:1005B000092F019538CFCF92DF92EF92FF920F93E0
:1005C0001F93CF93DF93E82EF62ED62ED20E6D1505
:1005D000E8F4D82FD40F90E080E0C12CED1688F419
:1005E0002BE0CE2D2F1520F046C0CF5FCD1748F45D
:1005F0009F5F9430D1F7F3DA90E080E0CF5FCD17C2
:10060000B8F3F394FD1450F3911141C0DF91CF91F1
:100610001F910F91FF90EF90DF90CF9008954C2F96
:10062000F8013C2D76E0F79EE00DB0E0A42FA77016
:10063000A852BC4F7C91469546954695E40F0080A4
:10064000072209F03395E85B0080072209F0339513
:10065000E85B0080072209F03395292F220F01C0A3
:10066000330F2A95EAF7832B9F5F943061F0CF5FB9
:10067000CD1708F0C6CFC03308F4D1CF30E0832BBC
:100680009F5F9430A1F7ABDA90E080E0F0CFDF918C
:10069000CF911F910F91FF90EF90DF90CF909FCA65
:1006A00028EDFC0111922A95E9F70895DC01FB0180
:1006B0009B0128523F4F8D918193E217F307D9F7A1
:1006C0000895DF92EF92FF920F931F93CF93DF93E2
:1006D000DFB6F894E4E8F0E0E491E8BDC0910104ED
:1006E000D09102047E0188EDE80EF11C8E01009588
:1006F00010956991C8018C0F9D1F65D8CE15DF0537
:10070000C1F78091F803882381F0E091F903F0E0CC
:10071000EC57FF4FE491E8BDDFBEDF91CF911F9111
:100720000F91FF90EF90DF900895E091FD03EFCFE0
:1007300081E08093EC038091EC038111FCCF08955C
:10074000ECEEF3E0818B81E081830895ECEEF3E041
:10075000828B638B448B089591E0811101C090E0FE
:100760009093FA0381E0611101C080E08093FB0364
:100770004093F6030895ECEEF3E0138681E0818761
:100780000895CF93DF9384B1836084B985B18C7F62
:1007900085B98AB1806E8AB98BB18F718BB984B5F6
:1007A000836384BD85B5816085BDE4E8F0E0E491B4
:1007B000E8BD8091B10082608093B1008BE28093AC
:1007C000B3008091700082608093700080E092E0BE
:1007D000909302048093010480E093E090930404DA
:1007E0008093030480E88093FD0381E08093FE03FF
:1007F00093E09093FF0394E0909300042BE0209308
:10080000EE038093EF0322E02093F0039093F10333
:1008100028ED32E03093F3032093F2039FEF90939F
:10082000F6038093F803C0E0D2E0CE0180509240FE
:10083000D2D7899382E0C83DD807B9F7DF91CF912D
:100840000895882361F08091F80381110DC0E09133
:10085000FD03F0E0EC57FF4FE491E8BD0895E4E8B4
:10086000F0E0E491E8BD0895E091F903F2CFEF9252
:10087000FF920F931F93CF93DF93A091EE03EA2F84
:10088000F0E0E052FC4F2081B091EF03422F440F83
:10089000E42FEB0F4091010450910204C091F0034A
:1008A00038E4C39FC001112436E0239F800D911DC1
:1008B0001124BB2309F4AAC026E030E0820F931F65
:1008C000840F951F9093F3038093F20385B18E7F7D
:1008D0009BB190682BB12F779BB94E2F50E04831D8
:1008E000510508F06DC0FA01E65EFF4F0994E091F2
:1008F000F203F091F303029000FA81F985B9289A86
:1009000001FA81F985B9289A02FA81F985B9289AFC
:1009100003FA81F985B9289A04FA81F985B9289AE8
:1009200005FA81F985B9289A06FA81F985B9289AD4
:1009300007FA81F985B9289A029000FA81F985B9F8
:10094000289A01FA81F985B9289A02FA81F985B9BC
:10095000289A03FA81F985B9289A04FA81F985B9A8
:10096000289A05FA81F985B9289A06FA81F985B994
:10097000289A07FA81F985B9289A029000FA81F934
:1009800085B92BB9289A9BB901FA81F985B9289ABA
:1009900002FA81F985B9289A03FA81F985B9289A6A
:1009A00004FA81F985B9289A05FA81F985B9289A56
:1009B00006FA81F985B9289A07FA81F985B9289A42
:1009C0005E9A5E98B11130C091E09093EF03A1114F
:1009D00020C08BE08093EE038091F10381508093DF
:1009E000F10381111AC0CC2351F1EFEFEC0FE0932A
:1009F000F003F0E0E451FC4F82898093F103DF9132
:100A0000CF911F910F91FF90EF90089523E030E078
:100A100055CF8FEF8A0F8093EE03DF91CF911F9117
:100A20000F91FF90EF9008958FEF8B0F8093EF035E
:100A3000DF91CF911F910F91FF90EF90089582E089
:100A40008093F0038091EC038823A9F01092EC03CB
:100A50008091FC0398279093FC03911141C680E09C
:100A600092E0909302048093010480E093E09093DD
:100A70000404809303048091ED038823A1F0109275
:100A8000ED03E091FD03F0E0EC57FF4FE491E8BD8A
:100A90001092F7031092F9031092F8039091F60365
:100AA0009F3F49F440C09091F6038091F8039F3F27
:100AB000D1F0811118C08091F5038823A1F18091B4
:100AC000F703891708F415C68091FA03882309F4FF
:100AD0001EC682E08093F8038091FD038093F903A2
:100AE00082E01092F503813009F4EFC58230D9F429
:100AF000E091F903E11103C68091FB03811119C64E
:100B0000E0910104F091020488EDDF011D928A95C5
:100B1000E9F781E08093F803E091F903F0E0EC5706
:100B2000FF4FE491E8BD81E08093F403E091F0038E
:100B300060CFE091F203F091F303029000FA81F9A3
:100B400085B9289A01FA81F985B9289A02FA81F9BA
:100B500085B9289A03FA81F985B9289A04FA81F9A6
:100B600085B9289A05FA81F985B9289A06FA81F992
:100B700085B9289A07FA81F985B9289A029000FA6E
:100B800081F985B9289A01FA81F985B9289A02FA7A
:100B900081F985B9289A03FA81F985B9289A04FA66
:100BA00081F985B9289A05FA81F985B92BB9289A6E
:100BB0009BB906FA81F985B9289A07FA81F985B9AE
:100BC000289A029000FA81F985B9289ADDCEE09141
:100BD000F203F091F303029000FA81F985B9289AA3
:100BE00001FA81F985B9289A02FA81F985B9289A1A
:100BF00003FA81F985B9289A04FA81F985B9289A06
:100C000005FA81F985B9289A06FA81F985B9289AF1
:100C100007FA81F985B9289A029000FA81F985B915
:100C2000289A01FA81F985B9289A02FA81F985B9D9
:100C3000289A03FA81F985B9289A04FA81F985B9C5
:100C4000289A05FA81F985B9289A06FA81F985B9B1
:100C5000289A07FA81F985B9289A029000FA81F951
:100C600085B9289A01FA81F985B92BB9289A9BB9D7
:100C70008FCEE091F203F091F303029000FA81F934
:100C800085B9289A01FA81F985B9289A02FA81F979
:100C900085B9289A03FA81F985B9289A04FA81F965
:100CA00085B9289A05FA81F985B9289A06FA81F951
:100CB00085B9289A07FA81F985B9289A029000FA2D
:100CC00081F985B9289A01FA81F985B9289A02FA39
:100CD00081F985B9289A03FA81F985B9289A04FA25
:100CE00081F985B9289A05FA81F985B9289A06FA11
:100CF00081F985B92BB9289A9BB95FCFE091F203AE
:100D0000F091F303029000FA81F985B9289A01FA6B
:100D100081F985B9289A02FA81F985B9289A03FAE6
:100D200081F985B9289A04FA81F985B9289A05FAD2
:100D300081F985B9289A06FA81F985B9289A07FABE
:100D400081F985B9289A029000FA81F985B9289A23
:100D500001FA81F985B9289A02FA81F985B9289AA8
:100D600003FA81F985B9289A04FA81F985B9289A94
:100D700005FA81F985B9289A06FA81F985B9289A80
:100D800007FA81F985B9289A029000FA81F985B9A4
:100D9000289A01FA81F985B9289A02FA81F985B968
:100DA0002BB9289A9BB9F8CDE091F203F091F303A7
:100DB000029000FA81F985B9289A01FA81F985B97A
:100DC000289A02FA81F985B9289A03FA81F985B936
:100DD000289A04FA81F985B9289A05FA81F985B922
:100DE000289A06FA81F985B9289A07FA81F985B90E
:100DF000289A029000FA81F985B9289A01FA81F9B6
:100E000085B9289A02FA81F985B9289A03FA81F9F5
:100E100085B9289A04FA81F985B9289A05FA81F9E1
:100E200085B9289A06FA81F985B9289A07FA81F9CD
:100E300085B92BB9289A9BB9C4CEE091F203F09101
:100E4000F303029000FA81F985B9289A01FA81F931
:100E500085B9289A02FA81F985B9289A03FA81F9A5
:100E600085B9289A04FA81F985B9289A05FA81F991
:100E700085B9289A06FA81F985B9289A07FA81F97D
:100E800085B9289A029000FA81F985B9289A01FA61
:100E900081F985B9289A02FA81F985B9289A03FA65
:100EA00081F985B9289A04FA81F985B9289A05FA51
:100EB00081F985B9289A06FA81F985B9289A07FA3D
:100EC00081F985B9289A029000FA81F985B9289AA2
:100ED00001FA81F985B9289A02FA81F985B9289A27
:100EE00003FA81F985B92BB9289A9BB904FA81F9DB
:100EF00085B9289A05FA81F985B9289A06FA81F9FF
:100F000085B9289A07FA81F985B9289A59CDE091CF
:100F1000F203F091F303029000FA81F985B92BB93D
:100F2000289A9BB901FA81F985B9289A02FA81F9C0
:100F300085B9289A03FA81F985B9289A04FA81F9C2
:100F400085B9289A05FA81F985B9289A06FA81F9AE
:100F500085B9289A07FA81F985B9289A029000FA8A
:100F600081F985B9289A01FA81F985B9289A02FA96
:100F700081F985B9289A03FA81F985B9289A04FA82
:100F800081F985B9289A05FA81F985B9289A11CE8F
:100F9000E091F203F091F303029000FA81F985B930
:100FA000289A01FA81F985B9289A02FA81F985B956
:100FB000289A03FA81F985B9289A04FA81F985B942
:100FC000289A05FA81F985B9289A06FA81F985B92E
:100FD000289A07FA81F985B9289A029000FA81F9CE
:100FE00085B9289A01FA81F985B9289A02FA81F916
:100FF00085B9289A03FA81F985B9289A04FA81F902
:1010000085B9289A05FA81F985B9289A06FA81F9ED
:1010100085B9289A07FA81F985B9289A029000FAC9
:1010200081F985B9289A01FA81F985B9289A02FAD5
:1010300081F985B9289A03FA81F985B9289A04FAC1
:1010400081F985B92BB9289A9BB905FA81F985B937
:10105000289A06FA81F985B9289A07FA81F985B99B
:10106000289AAECCE091F203F091F303029000FADB
:1010700081F985B9289A01FA81F985B92BB9289A9D
:101080009BB954CFE091F203F091F303029000FA80
:1010900081F985B9289A01FA81F985B9289A02FA65
:1010A00081F985B9289A03FA81F985B9289A04FA51
:1010B00081F985B9289A05FA81F985B9289A06FA3D
:1010C00081F985B9289A07FA81F985B9289A029099
:1010D00000FA81F985B9289A01FA81F985B9289A27
:1010E00002FA81F985B9289A03FA81F985B9289A13
:1010F00004FA81F985B9289A05FA81F985B9289AFF
:1011000006FA81F985B9289A07FA81F985B9289AEA
:10111000029000FA81F985B9289A01FA81F985B916
:10112000289A02FA81F985B9289A03FA81F985B9D2
:10113000289A04FA81F985B9289A05FA81F985B9BE
:101140002BB9289A9BB906FA81F985B9289A07FA2A
:1011500081F985B9289A34CCE091F203F091F30338
:10116000029000FA81F985B9289A01FA81F985B9C6
:10117000289A02FA81F985B92BB9289A9BB9DACE57
:10118000E091F203F091F303029000FA81F985B93E
:10119000289A01FA81F985B9289A02FA81F985B964
:1011A000289A03FA81F985B9289A04FA81F985B950
:1011B000289A05FA81F985B9289A06FA81F985B93C
:1011C000289A07FA81F985B9289A029000FA81F9DC
:1011D00085B9289A01FA81F985B9289A02FA81F924
:1011E00085B9289A03FA81F985B9289A04FA81F910
:1011F00085B9289A05FA81F985B9289A06FA81F9FC
:1012000085B9289A07FA81F985B9289A029000FAD7
:1012100081F985B9289A01FA81F985B9289A02FAE3
:1012200081F985B9289A03FA81F985B9289A04FACF
:1012300081F985B9289A05FA81F985B9289A06FABB
:1012400081F985B92BB9289A9BB907FA81F985B933
:10125000289AB6CBE091F203F091F303029000FAE2
:1012600081F985B9289A01FA81F985B9289A02FA93
:1012700081F985B9289A03FA81F985B92BB9289A99
:101280009BB95CCEE091F203F091F303029000FA77
:1012900081F985B9289A01FA81F985B9289A02FA63
:1012A00081F985B9289A03FA81F985B9289A04FA4F
:1012B00081F985B9289A05FA81F985B9289A06FA3B
:1012C00081F985B9289A07FA81F985B9289A029097
:1012D00000FA81F985B9289A01FA81F985B9289A25
:1012E00002FA81F985B9289A03FA81F985B9289A11
:1012F00004FA81F985B9289A05FA81F985B9289AFD
:1013000006FA81F985B9289A07FA81F985B9289AE8
:10131000029000FA81F985B9289A01FA81F985B914
:10132000289A02FA81F985B9289A03FA81F985B9D0
:10133000289A04FA81F985B9289A05FA81F985B9BC
:10134000289A06FA81F985B9289A07FA81F985B9A8
:101350002BB9289A9BB934CBE091F203F091F303B7
:10136000029000FA81F985B9289A01FA81F985B9C4
:10137000289A02FA81F985B9289A03FA81F985B980
:10138000289A04FA81F985B92BB9289A9BB9DACD44
:10139000E091F203F091F303029000FA81F985B92C
:1013A000289A01FA81F985B9289A02FA81F985B952
:1013B000289A03FA81F985B9289A04FA81F985B93E
:1013C000289A05FA81F985B9289A06FA81F985B92A
:1013D000289A07FA81F985B9289A029000FA81F9CA
:1013E00085B92BB9289A9BB901FA81F985B9289A50
:1013F00002FA81F985B9289A03FA81F985B9289A00
:1014000004FA81F985B9289ABECDE091F203F091F2
:10141000F303029000FA81F985B9289A01FA81F95B
:1014200085B9289A02FA81F985B9289A03FA81F9CF
:1014300085B9289A04FA81F985B9289A05FA81F9BB
:1014400085B92BB9289A9BB981CDE091F203F0912F
:10145000F303029000FA81F985B9289A01FA81F91B
:1014600085B9289A02FA81F985B9289A03FA81F98F
:1014700085B9289A04FA81F985B9289A05FA81F97B
:1014800085B9289A06FA81F985B9289A07FA81F967
:1014900085B9289A029000FA81F985B9289A01FA4B
:1014A00081F985B92BB9289A9BB902FA81F985B9D6
:1014B000289A03FA81F985B9289A04FA81F985B93D
:1014C000289A61CDE091F203F091F303029000FAC3
:1014D00081F985B9289A01FA81F985B9289A02FA21
:1014E00081F985B9289A03FA81F985B9289A04FA0D
:1014F00081F985B9289A05FA81F985B9289A06FAF9
:1015000081F985B92BB9289A9BB924CDE091F203D2
:10151000F091F303029000FA81F985B9289A01FA53
:1015200081F985B9289A02FA81F985B9289A03FACE
:1015300081F985B9289A04FA81F985B9289A05FABA
:1015400081F985B9289A06FA81F985B9289A07FAA6
:1015500081F985B9289A029000FA81F985B9289A0B
:1015600001FA81F985B9289A02FA81F985B92BB96E
:10157000289A9BB903FA81F985B9289A04FA81F966
:1015800085B9289A00CDE091F203F091F30302901F
:1015900000FA81F985B9289A01FA81F985B9289A62
:1015A00002FA81F985B9289A03FA81F985B9289A4E
:1015B00004FA81F985B9289A05FA81F985B9289A3A
:1015C00006FA81F985B9289A07FA81F985B92BB904
:1015D000289A9BB9C3CCE091F203F091F3030290F7
:1015E00000FA81F985B9289A01FA81F985B9289A12
:1015F00002FA81F985B9289A03FA81F985B9289AFE
:1016000004FA81F985B9289A05FA81F985B9289AE9
:1016100006FA81F985B9289A07FA81F985B9289AD5
:10162000029000FA81F985B9289A01FA81F985B901
:10163000289A02FA81F985B9289A03FA81F985B9BD
:101640002BB9289A9BB904FA81F985B9289A9BCCC1
:10165000E091F203F091F303029000FA81F985B969
:10166000289A01FA81F985B9289A02FA81F985B98F
:10167000289A03FA81F985B9289A04FA81F985B97B
:10168000289A05FA81F985B9289A06FA81F985B967
:10169000289A07FA81F985B9289A029000FA81F907
:1016A00085B9289A01FA81F985B9289A02FA81F94F
:1016B00085B9289A03FA81F985B9289A04FA81F93B
:1016C00085B92BB9289A9BB95ECCE091F90380913A
:1016D000FD03E817C0F01092F7031092F8031ECA3A
:1016E00080E093E0909302048093010480E092E014
:1016F000BEC98F5F8093F7038091F803F4C9E1506E
:10170000E093F9030BCAEF5FE093F90307CA8091F6
:10171000FB03811120C0E0910104F091020488EDE7
:10172000DF011D928A95E9F71092F7038091F80383
:10173000D8C900910104109102047801B8EDEB0EB4
:10174000F11CE801CE01801B910B45D08993CE1589
:10175000DF05C1F7DEC90091010410910204780190
:1017600088EDE80EF11CE801CE01801B910B33D00F
:101770008993CE15DF05C1F7D7CF1F920F920FB611
:101780000F9211242F933F934F935F936F937F9307
:101790008F939F93AF93BF93EF93FF9368D8B89ABB
:1017A0001092B200FF91EF91BF91AF919F918F91F5
:1017B0007F916F915F914F913F912F910F900FBE4D
:1017C0000F901F901895F999FECF92BD81BD60BD15
:1017D000FA9AF99A0895F999FECF92BD81BDF89AC7
:1017E00080B50895CED7EAD4CCD178940895CF931C
:1017F000DF931F92CDB7DEB7F5DF812CD7D1D82E7E
:10180000E82FE295EF704E2F50E0FA01EE5CFF4FAB
:101810000994CCD1182FCAD1F82EC8D1982EC6D190
:10182000082FC4D1282F30E0359527953595279579
:1018300023703327232B09F081C1C0900304D0907B
:101840000404282F237009F074C1A0900304B09001
:10185000040411115FC1F1105DC191105BC1E82E4C
:10186000E2946FE0E622003309F483C1292D2F7042
:10187000692D62956F704F2D812FBCD57CD7BECF5F
:1018800080E8ADD1B3D1ABD176D7B8CF8FD12D2DE4
:1018900030E0B901759567957595679561703595D7
:1018A00027953595279535952795482F822F817057
:1018B00053D761D7A3CF7AD1482F4F70682F629545
:1018C0006F708D2D8F7042D756D798CFFAD653D7D9
:1018D00095CF6CD1F82E6AD1898368D12D2D30E057
:1018E000359527953595279523704981211117C185
:1018F0000091030410910404282F2F70682F629523
:101900006F708F2DF4D437D779CF50D1182F4ED197
:1019100089834CD10D2D03702D2D30E03595279501
:101920003595279523704981211117C1E090030453
:10193000F0900404011105C0111103C0403309F4F3
:1019400011C1282F2F70682F62956F70812F4BD493
:1019500012D754CF2BD1F82E29D1E82E27D1182F0A
:10196000282F2F70822F8064298339D18E2D37D173
:10197000ED2DF0E0F595E795F595E795E370298174
:10198000E111E6C08091030490910404612F6295F7
:101990006F708C014E2D8F2D0ED6EDD62FCF06D128
:1019A000182F04D1282F30E03595279535952795A8
:1019B00023703327232B09F0B7C020910304309103
:1019C0000404103330F4982F92959F709C3008F4E3
:1019D00081C080E304D158CFE9D0182FE7D0282F59
:1019E00030E0359527953595279523703327232BA0
:1019F00009F0A9C02091030430910404103308F0C9
:101A00003DCF482F42954F704C3008F037CF982F7C
:101A10009370F90176E0479FE00DB0E0A12FA77029
:101A2000A852BC4F7C91169516951695E10F9330F0
:101A300059F19230E1F0913069F070950080072201
:101A40000082E85B008007220082E85B00800722BA
:101A5000008225C00080072A0082E85B7095008024
:101A600007220082E85B00800722008218C0008005
:101A7000072A0082E85B0080072A0082E85B7095F5
:101A80000080072200820BC00080072A0082E85BEA
:101A90000080072A0082E85B0080072A00826BD65C
:101AA000ADCE84D04DD667D6A9CE96D3182F8DD380
:101AB0008065110F812B93D05ED6A0CE39D65BD630
:101AC0009DCE82E28CD057D699CE8F70806187D020
:101AD00052D694CEF901882D76E0979FE00DB0E0C4
:101AE000A12FA770A852BC4F7C91169516951695FC
:101AF000E10F0080072209F08395E85B0080072250
:101B000009F08395E85B0080072209F083958063E4
:101B100066D0BACEE82EE2945FE0E522A7CE00912F
:101B2000010410910204E8CE2091010430910204D6
:101B300048CFA0900104B09002048BCEC090010465
:101B4000D09002047ECE209101043091020456CF41
:101B5000809101049091020419CFE0900104F0906B
:101B60000204E8CE8C3009F0ECCEC70199D503D63B
:101B700045CE8CE0E8127ACEB501C60197D5FBD5EB
:101B80003DCE1092C5008BE08093C400E0ECF0E005
:101B9000808182608083E1ECF0E0808188698083CD
:101BA000E2ECF0E0808186608083089590910704E4
:101BB000809106049817D1F39FB7F894809105049B
:101BC000815080930504E091070481E08E0F80939B
:101BD0000704F0E0E050FF4F80819FBF089590918F
:101BE000C00095FFFCCF8093C60008959FB7F8947E
:101BF000809105049FBF08951F920F920FB60F9218
:101C000011242F933F934F935F936F937F938F9301
:101C10009F93AF93BF93EF93FF93E091060481E00E
:101C20008E0F809306048091C600F0E0E050FF4FD5
:101C30008083809105048F5F809305049091070451
:101C400080910604981789F0FF91EF91BF91AF91B1
:101C50009F918F917F916F915F914F913F912F91C4
:101C60000F900FBE0F901F90189580E0EAD58091DD
:101C7000C00085FFFCCF80E78093C60090E0809194
:101C8000C00087FFFCCF8091C600882311F090E050
:101C9000F6CFE92FF0E0E050FF4F10829F5F79F719
:101CA0001092070480E980930504809306048091D4
:101CB000C00085FFFCCF80E18093C60081E0C1D5E4
:061CC000C3CFF894FFCF32
:101CC6008040201008040201070209000B040608E0
:041CD600010A0305F7
:020000040100F9
:1001000000000000000000000000000000000000EF
:1001100000000000000000000000000000000000DF
:1001200000000000000000000000000000000000CF
:1001300000000000000000000000000000000000BF
:00000001FF
